:4000000000400020110000000D1400000D14000080B500AF01F004FA80B582B000AF3F4B12221A6002F082F83D4B180003F074FA012002F08BF8302001F092FE394B8022F2
:40004000D2051A60384B384A126802210A431A60364B374A1A60374B00221A60364B364A126808218A431A60FA23DB00180001F0C5FE0200FB1D1A70FB1D1B78002B02D031
:40008000012001F025F92D4B180001F0EFFF2C4BFE2212021A602B4B2B4A1A602B4BFE2212021A60274B2A4A1A602A4BE02212011A60244B284A1A60284B92221A60284B20
:4000C000802212061A60274B40221A60264B41221A60264B42221A60254B1900082001F0D7FE082001F04EFF224B234A1A600D4B224A1A60224B08221A60C046204B1B686D
:4001000008221340FAD11E4B01221A60034B11221A60C046BD4602B080BDC04630001040001BB7000C020B4078002E407C002E406969000064F02E406CF02E40DC050000BE
:40014000000301400000014040FF00800403014041FF00800803014042FF008000010B4008010B40140101401001014004010140E122000008020B40FF3F000005000040BD
:4001800010020B4080B582B000AF72B6394B00221A60FB1D00221A7022E0FB1D1A7813005B009B185B00344A9B183B603B681A78597809020A43997809040A43DB781B068F
:4001C000134318003B681A795B791B0213439BB2190001F06DF8FB1D1A78FB1D01321A70FB1D1B78012BD8D9244A254B1100180001F07AF8234B8022D2021A60224B234AAF
:400200001A60234B992212041A60224B992212041A60214A204B1B78DBB23C218B43DBB214210B43DBB213701C4A1C4B1B78DBB216210B43DBB21370194B30221A60194B7C
:40024000194A1A60194B90221A60194BC022D2011A60184B90221A60174B01221A60174B01221A60FFF7D8FE01F080F8C046BD4602B080BD6CF02E40A06C0100B86C0100C8
:40028000AC6C010014000B40000002400000EEEE00500F4030500F4001700F4000700F4000000440080004400040DA00000304400803044018030440000404401804044074
:4002C00010B5064C2378002B07D1054B002B02D0044800E000BF0123237010BDB010002000000000946C0100084B10B5002B03D00749084800E000BF07480368002B00D1A1
:4003000010BD064B002BFBD09847F9E700000000B4100020946C0100A80B00200000000080B582B000AF3A4B1B78002B6CD0394B1B78002B63D1002002F086F903001A0079
:40034000354B1A80354B1B683549181C03F062FF031C3449181C04F077F8031C181C04F0F9F903007B607B68DAB22F4B9A762F4B1B68092B03DC2D4B0A221A6006E02B4B8D
:400380001B682A2B02DD294B2A221A60284B1B68132B03DC264B14221A6006E0244B1B68542B02DD224B54221A60204B1B680A3BDA001F4B1B68143B002B00DA01335B1098
:4003C0001A431C4B1A601B4B1B68DAB2164B5A76114B1B88DAB2144B1A77174B1B68DAB2114BDA76002001F053F90A4B01221A70114B00221A60084B00221A8004E001F046
:40040000B3F9044B00221A70C046BD4602B080BDCC100020CD10002084220020DC1000200000C84200006144FC0B0020D4100020D8100020E0100020D010002080B582B0F9
:4004400000AF786039607B68012B02D0282B00D003E0044B01221A70C046C046BD4602B080BDC046CC10002090B583B000AF62B62A4B1900002001F013FFBC1D284B180025
:4004800001F06EF803002380BB1D1B88002B02D0002001F0B9FD02F041F802F081FB02F099F8C04602F0C2F8031EFBD102F0E8FD00F0D4FD00F03EF802F080FC02F08AF8A5
:4004C000C04602F0B3F8031EFBD100F033F800F0C5FD00F09BFE00F0A3FE00F0D1FE0200104B1A6000F0DAFE00F00CFC031C181C04F030F902000C4B1A6000F09BF9021C4A
:400500000A4B1A6000F080FB031C181C04F022F90200074B1A6005F0BBF9CDE7210300003D040000D0100020D4100020DC100020D810002090B583B000AFFB1D00221A708C
:40054000892000F03FFC03009BB21B029CB2882000F038FC03009BB2E3189AB2B44B5A818B2000F02FFC03009BB21B029CB28A2000F028FC03009BB2E3189BB21AB2AC4B15
:400580009A818D2000F01EFC03009BB21B029CB28C2000F017FC03009BB2E3189BB21AB2A34BDA818F2000F00DFC03009BB21B029CB28E2000F006FC03009BB2E3189AB2B8
:4005C0009B4B1A82912000F0FDFB03009BB21B029CB2902000F0F6FB03009BB2E3189BB21AB2934B5A82932000F0ECFB03009BB21B029CB2922000F0E5FB03009BB2E31864
:400600009BB21AB28A4B9A82952000F0DBFB03009BB21B029CB2942000F0D4FB03009BB2E3189BB21AB2824BDA82972000F0CAFB03009BB21B029CB2962000F0C3FB0300EC
:400640009BB2E3189BB21AB2794B1A83992000F0B9FB03009BB21B029CB2982000F0B2FB03009BB2E3189BB21AB2714B5A839B2000F0A8FB03009BB21B029CB29A2000F09B
:40068000A1FB03009BB2E3189BB21AB2684B9A839D2000F097FB03009BB21B029CB29C2000F090FB03009BB2E3189BB21AB2604BDA839F2000F086FB03009BB21B029CB2E2
:4006C0009E2000F07FFB03009BB2E3189BB21AB2574B1A84A12000F075FB03001900544B22229954E22000F06DFB03009BB21B029CB2E12000F066FB03009BB2E3189BB222
:400700001AB24B4B9A84E32000F05CFB03001900474B26229954E42000F054FB03009BB21B019CB2E52000F04DFB03009BB20F2213409BB2E3189BB21AB23D4B1A85E62070
:4007400000F040FB03009BB21B019CB2E52000F039FB03001B09DBB29BB20F2213409BB2E3189BB21AB2324B5A85E72000F02AFB030019002E4B2C2299540021F42000F018
:4007800089FB2B4B1B795A01FB1D1A70284B5B799B005BB21C2213405AB2FB1D1B785BB213435AB2FB1D1A70FB1D1B781900F52000F070FB1E4B1A7AFB1D07210A401A7021
:4007C000FB1D1B781900F22000F064FB184B9B795A01FB1D1A70164BDB799B005BB21C2213405AB2FB1D1B785BB213435AB2FB1D1A700F4BDB785BB2032213405AB2FB1D54
:400800001B785BB213435AB2FB1D1A70FB1D1B781900F42000F03EFBBC1DD02000F0D2FA03002370BB1D1B781800BD4603B090BDAC0B0020F0B5ADB000AFF72000F0C2FA27
:4008400003001C03F82000F0BDFA03001B011C43F92000F0B7FA03001B09DBB21A000F2313402343AC22BA181360724B1B6B3B65DB177B65704B01246442396D7A6DC918EA
:4008800062410B001400A022BA1813605460A023FB181A685B68A02179180868496803F03FFC03000C0018002100624B1A229B5EBB64DB17FB64BA6CFB6C03F031FC0300B5
:4008C0000C009822BA18136054605A4B18229B5E3B64DB177B64A023FB181A685B68386C796C03F01DFC03000C00DA0B660416435D049823FB185C681B685B197441982231
:40090000BA18136054604B4B16229B5EBB63DB17FB63BB6BDB007B6300233B639823FB185C681B68396B7A6B5B1854419822BA1813605460A023FB181A685B68A021791823
:400940000868496803F0ECFB03000C0018002100384B14229B5EBB62DB17FB62BA6AFB6A03F0DEFB03000C002206190A88203818016088217918096811438822BA18116022
:4009800023128C22BA1813602A4B12229B5E3B62DB177B62A023FB181A685B68386A796A03F0BEFB03000C001A0D210384203818016084217918096811438422BA18116022
:4009C0001B038022BA1813608823FB185C681B688022BA18116852685B185441A022BA1813605460A023FB1819685A68002380242402C9186241080011000E4B1B8ABB61C6
:400A00000023FB61BA69FB6903F08AFB03000C006210A02179180A60E317A422BA181360A023FB181A68A423FB181B681A4305D10023E0E0AC0B0020000CFEFFAC23FB1869
:400A40001A6880235B039B1A9022BA181360DB179422BA1813609023FB181B685A089423FB181B68DB07FB67FB6F1343FB679023FB181B68DB07BB679823FB185C681B689A
:400A8000B86FF96FC01AA1415D4A002303F048FB03000C0018002100A023FB181A685B6803F01AFB03000C009022BA1813605460544B20229B5E3B61DB177B619423FB18B8
:400AC0001B68DA049023FB181B685B0B3B673B6F13433B679423FB181B685B137B673A6F7B6F3869796903F01BFB03000C00180021009423FB181B68DA049023FB181B682A
:400B00005B0BBB66BB6E1343BB669423FB181B685B13FB66BA6EFB6E03F002FB03000C00E201590E0A43A02179180A606316A422BA181360334B1E229B5EBB60DB17FB60EC
:400B40009023FB181A685B68B868F96803F0E8FA03000C006203D90C0A43982179180A60E3149C22BA1813609023FB1819685A68A023FB185C681B68C91862419823FB1848
:400B80005C681B685B1854412206190A3966396E1143396623127B661A4B1C229B5E3B60DB177B6039687A680B001B0F10000001F865F86D1843F8650B001B01BB653B6E15
:400BC0007C6EB96DFA6D5B1854419022BA18136054609023FB181868596803F0CDFA031C8721C905181C03F015FB031C1A1C054B9A63044B9B6B181CBD462DB0F0BDC04680
:400C0000350C0000AC0B002090B583B000AFFD2000F0D8F803001C02FE2000F0D3F8030023437B60354B1B6B354A944663443B607B689A03314B28215B5E1B05D21A2F4B35
:400C40002A215B5E19003B684B43D31A8022D20194466344DB13294A2C21525C11003A684A43921225492620095C080039684143C91280200002844661444A4392128021FF
:400C800089038C4662441D492420095E4A43802189018C466244921353433B603B68DB133A68D2135343DB11144A2221525C53431B113A68D31A3B603B68002B00DA002379
:400CC0003B603B68C8225205934201DDC8235B053B603B681B13180003F05EFD031C8921C905181C03F096FA031C1A1C034BDA63024BDB6B181CBD4603B090BDAC0B0020D6
:400D000000D4FEFF90B589B000AFFA2000F05AF803001C03FB2000F055F803001B011C43FC2000F04FF803001B09DBB21A000F2313402343FB61FB69DA10204B5B895B0001
:400D4000D31A1E4A0C21525E5343DB123B61DB177B61FB691B11194A52899B1AFA69121116494989521A53431B13144A0E21525E53439B13BB60DB17FB603A69BB68D31850
:400D80001A000E4B1A630D4B1A6B13009B009B1880331B12180003F0FFFC031C7B600849786803F037FA031C7B60044B7A685A63024B5B6B181CBD4609B090BDAC0B0020C1
:400DC0000000C84280B584B000AF0200FB1D1A700D23FB1801221A702D4B1B78002B02D0012B4CD04CE002F061FB294B5B781800F91D0023012202F007FA0E23FB1800225F
:400E00001A800CE002F030FB0200022313400ED10E23FB181A880E23FB1801321A800E23FB181A882C23FF339A42EBD900E0C046174B5B7818000D23FB181A780C23F91870
:400E4000002302F075FA0E23FB1800221A800CE002F00AFB0200012313400ED10E23FB181A880E23FB1801321A800E23FB181A882C23FF339A42EBD902E0C04600E0C046E7
:400E80000C23FB181B781800BD4604B080BDC046AC0B002080B584B000AF0200FB1D1A70BB1D0A1C1A700C23FB18FA1D12781A700C23FB18BA1D12785A70194B1B78002B34
:400EC00002D0012B27D027E002F0F0FA144B5B7818000C23F9180023022202F095F90E23FB1800221A800CE002F0BEFA0200022313400ED10E23FB181A880E23FB1801327D
:400F00001A800E23FB181A882C23FF339A42EBD902E0C04600E0C046C046BD4604B080BDAC0B002080B588B000AF0200BB1D1A807B1D0A1C1A701F23FB1829221A70BB1D97
:400F40001B881B0A9BB2DAB21823FB181A70BB1D1B88DAB21823FB185A701823FB187A1D12789A7002F0A2FA1823F91800230322292002F049F902001E23FB181A701E23A0
:400F8000FB181B78002BFAD1C04602F06DFA020004231340F9D102F089FA02001E23FB181A70C046BD4608B080BDC04680B588B000AF0200FB1D1A701F23FB1829221A70AD
:400FC0001C23FB1800221A701C23FB18FA1D12785A7002F06BFA1C23F91800230222292002F012F902001E23FB181A701E23FB181B78002BFAD1C04602F036FA02000423F4
:401000001340F9D102F052FA02001E23FB181A701F23FB1818781823F9180023012202F087F902001E23FB181A701E23FB181B78002BFAD1C04602F017FA0200042313404A
:40104000F9D102F033FA02001E23FB181A701823FB181B781800BD4608B080BD90B585B000AF0F23FC181620FFF7A0FF030023700F23FB181B78012B00D0BDE0614B0121A7
:401080001800FFF74FFF82239B0001211800FFF749FF00219620FFF745FFFD219720FFF741FF0021E320FFF73DFF0421E420FFF739FF0221E520FFF735FF0121E620FFF7E3
:4010C00031FF0321E720FFF72DFF0221F520FFF729FF0521D920FFF725FFCE21DB20FFF721FF0321DC20FFF71DFFF821DD20FFF719FF00219F20FFF715FF3C21A320FFF78E
:4011000011FF0021B720FFF70DFF3C21BB20FFF709FF0921B220FFF705FF0921CA20FFF701FFCC235B0001211800FFF7FBFED8235B0017211800FFF7F5FEAE23FF33002149
:401140001800FFF7EFFE0521FF20FFF7EBFE80235B0005211800FFF7E5FE9A23FF3305211800FFF7DFFED3235B001B211800FFF7D9FED6235B003E211800FFF7D3FEA8236C
:40118000FF331F211800FFF7CDFE00213020FFF7C9FE10211120FFF7C5FE85235B0030211800FFF7BFFE46213F20FFF7BBFEFF213120FFF7B7FE63214120FFF7B3FE01213D
:4011C0002E20FFF7AFFE09211B20FFF7ABFE31213E20FFF7A7FE24211420FFF7A3FE31211C20FFF79FFE084B00211800FFF79AFE00211620FFF796FE00231800BD4605B090
:4012000090BDC04607020000A302000080B500AF01211820FFF786FE00231800BD4680BD90B585B000AF0E23FC184F20FFF7BEFE030023700F23FB180E22BA18127807215C
:401240000A401A7011E00E23FC184F20FFF7AEFE030023700F23FB180E22BA18127807210A401A70012000F0DBFE0F23FB181B78042BE8D100231800BD4605B090BDC04600
:4012800080B582B000AF6220FFF790FE03007B607B681800BD4602B080BDC04680B500AF07211520FFF73EFE00231800BD4680BD80B582B000AF786039603A687B68002126
:4012C000180004F0A9FAC046BD4602B080BDC04680B582B000AF0200FB1D1A70FB1DFA1D12781A70FEE7C04680B586B000AF7860396000233B6100237B612FE07B699B0082
:401300007A68D3181B68BB600F23FB18BA681A70BB68FF229343BB6018E03B695B003A68D3181B781A00BB68D31819003B695B003A68D3185B780B703B6901333B610F2344
:40134000FB181A780F23FB18013A1A700F23FB181B78002BE1D17B6901337B617B69022BCCD9C046BD4606B080BDC04680B500AF074B03221A60074B03221A60064B002224
:401380001A60012000F00AF8C046BD4680BDC0463000304030003140000E3F4080B584B000AF0200FB1D1A70154B1B68FB60FB1D1B78002B05D0FB68802212061343FB6013
:4013C00003E0FB685B005B08FB600D4BFA681A600C4B1B68FB60FB1D1B78002B05D0FB68802292041343FB6003E0FB68064A1340FB60044BFA681A60C046BD4604B080BDC5
:4014000080033A4008010B40FFFFFFFD80B500AF04F0BEF903001B680C2B00D1FEE7FEE780B586B000AF224B7B61224B3B61204B7B6135E03B691B68FB603B695B68BB60AE
:401440003B699B683B6000237B600CE0FB681A68BB681A60BB680433BB60FB680433FB607B6804337B607A683B689A42EED13B69DB683B6000237B6008E0BB6800221A6018
:40148000BB680433BB607B6804337B607A683B689A42F2D13B6910333B617B69013B7B617B69002BC6D104F079F9FEF7DDFFFEE7010000005C72010080B582B000AF154B17
:4014C000144A126801218A431A6000237B600FE07B68032B04D8104B7A689200D35800E00E4B0F4A796889008B507B6801337B607B682F2BECD9FEF745FE0A4B00221A60E3
:40150000044B044A126801210A431A60C046BD4602B080BD00001040000000000D14000000000020C000002080B500AF064B00221A70064B00221A70054B00221A7000F078
:4015400009F8C046BD4680BD9B220020942200209A22002080B500AFC046BD4680BDC046B0B594B004AF78603E23FB1800221A802823FA183D4B1000190014231A0004F0AE
:4015800042F93B4B1B78002B04D1FFF7CDFF384B01221A707B68002B5CD0364B7A681A603E23FB181B88002B29D11023FB181C22BA185A601023FB182022BA181A6010237B
:4015C000FB1800221A812023FB181B221A802023FB181B225A802023FB1804221A711C23FB1800221A703E23FC180E23FA181023FB181100180004F027FA030023803E2339
:40160000FB181B88002B29D13E23FC182823FD18AE231A0118491948194B0293194B0193052300932B0004F065F9030023803E23FB181B88002B11D1134B01221A703E23ED
:40164000FC18124B0B221A21180010F025FF0300238003E03E23FB1801221A803E23FB181B881800BD4610B0B0BDC046D46C0100E410002088220020C8000020F119000025
:4016800079020000007B010092220020F06C010090B585B000AF0200FB1D1A70FB1D1B78022B04D90E23FB1801221A804CE02A4B1B78042B43D1294B1B78DBB21A00042333
:4016C00013403CD1FB1D1B78002B0DD1244B00221A82234B5B68C822D2001A80204B5B68C822D2005A8010E0FB1D1B78012B0CD11B4B96221A821A4B5B68C822D2001A8082
:40170000174B5B688022D2015A80164BFA1D12781A700E23FC18124B18000EF0BDFA030023800E23FB181B88002B0DD10B4B1B78DBB204221343DAB2084B1A7004E00E2334
:40174000FB180422FF321A800E23FB181B881800BD4605B090BDC046922200209B2200201C0C00209A22002080B500AF0EF04CFB054B1B78DBB208221343DAB2024B1A700A
:40178000C046BD4680BDC0469B22002080B584B000AF78600A00FB1C1A700023BB60BB68002B20D07B689A79BB681A700F23FB1800221A7012E00F23FB181B780133BA6835
:4017C000D3180F22BA18127879688A5C1A700F23FB181A780F23FB1801321A700F23FB181B78052BE7D9C046BD4604B080BDC04680B582B000AF78607B681B789AB27B68EC
:4018000001331B789BB21B029BB213439BB21800BD4602B080BDC04690B585B000AF78600F23FB1800221A707B689B890D22934232D17B68181D7A680F23FC1840230021B3
:4018400010F042FE030023700F23FB181B78002B1AD17B685B681800FFF7CAFF03001A00022313409BB2002B07D00F4B1B687968822252001000984706E00B4B1B68796800
:401880000622FF3210009847084B1B78DBB201229343DAB2054B1A700F23FB181B781800BD4605B090BDC046882200209B22002090B585B000AF78600F23FC187B6818002A
:4018C000FFF7AAFF03002370154B1B78DBB21A00012313401FD10F23FB181B78002B16D00823FB1812229A707B689A890823FB181A800823FB180F22BA181278DA7008232F
:40190000FA187B68110018680FF03EFB03E07B6818680FF0B1FBC046BD4605B090BDC0469B22002080B582B000AF7860C046BD4602B080BD80B500AF044B00225A70034BB7
:4019400000221A70C046BD4680BDC0469822002080B582B000AF7860C046BD4602B080BD80B500AFC046BD4680BDC04680B584B000AF78600E23FB1800221A707B689B79A8
:40198000002B1CD10F23FB1800221A7012E00F23FB181B787A68D35C002B04D00E23FB1801221A700BE00F23FB181A780F23FB1801321A700F23FB181B78052BE7D90E2396
:4019C000FB181B781800BD4604B080BD80B582B000AF0200BB1D1A80C046BD4602B080BD80B582B000AF7860C046BD4602B080BD80B588B000AF02003960FB1D1A70C74B62
:401A00001B78DBB201221343DAB2C44B1A70FB1D1B78712B00D960E19A00C14BD3181B689F461023FB1807221A701023FB1800225A701023FB18180005F010FF1023FB18BB
:401A400007221A701023FB1801225A701023FB18180005F003FF0923002B01D003F010FFB04B1B681800FFF781FF031E11D0AD4B1B68180003F010FFAA4B1B6800211800AD
:401A8000FFF784FEA74B1B6801211800FFF77EFE36E0A54B1B781A003F231A40A34B1B789901FC231B010B401A43A14B1B781903F8235B020B401A439E4B1B785904FE236B
:401AC0001B040B401343BB61BB69DAB29A4B1A70BB691B0ADAB2984B5A70BB691B0CDAB2954B9A70944B180003F0D6FE924B00211800FFF74BFE904B01211800FFF746FE46
:401B000000200DF09DFF0C23FB183F221A700C23FB1800225A700C23FB1818000DF0AEFF864B04221A70DFE03B681800FFF710FFDAE03B681A78824B1A70D5E03B687B6113
:401B40007B691B78002B00D0C9E07B695B78002B0BD17C4B0022DA807A4B00229A80794B794A1A607B69774A5A606C4B1B78DBB201229343DAB2694B1A70B0E0674B1B7879
:401B8000DBB21A002023134000D0AAE06F4B1B78102B00D0A5E06D4B0522DA70A1E03B681800FFF71DFF9FE03B681800FFF718FF624B02221A7097E0604B04221A7093E053
:401BC0005E4B1B78022B00D18DE0544B1B78DBB21A000123134000D185E0504B1B78DBB21A00042313400BD0544B03221A704B4B1B78DBB204229343DAB2484B1A7072E093
:401C0000464B1B78DBB21A00082313400BD04B4B04221A70414B1B78DBB208229343DAB23E4B1A705FE0454B1B78032B5BD1434B04221A7057E03B681B881800FFF7C6FEA6
:401C400052E0434A3B681000190002231A0003F0DAFD3B4B00221A703D4B1B781A0013005B009B185B009E2292009A18394BD3180133394A1000190006231A0003F0C3FDA4
:401C8000FFF76EFE30E0FFF755FE2DE03B685B88162B05D81E23FB183A6852881A8003E01E23FB1817221A801E23FB1819883B681A8800231204120C1B0C1B0413431800FF
:401CC0000FF06CF910E03B681800FFF7F1FD0BE03B681800FFF726FE06E0C04604E0C04602E0C04600E0C0460C4B1B78DBB21A00112313400ED0094B1B78DBB2012293432A
:401D0000DAB2064B1A70154B1B68FA1D1278396810009847C046BD4608B080BD9B220020046F0100380C00207CF1FF0F7DF1FF0F7BF1FF0F78F1FF0F300C0020922200205D
:401D40009422002008110020A80B0020C40C002098220020007B01008C2200208822002090B58BB000AF78602723FC1801F0DDFB03002370194B1A680C23FB181A60184BDA
:401D80001A680C23FB185A607B68033B154AD35C1A000C23FB189A60134B1A680C23FB18DA601C23FB18114A1A600C23FA181C23FB185A600E4B1C22BA181A600D4B0E4A3D
:401DC0001A600B4B1B682723FB181B78180001F0B0FBC046BD460BB090BDC04608010B4000010B40CC70010030001040B6EA000008001040040010401700008080B584B02C
:401E000000AF78600023FB60154B154A126801210A431A60134B144A1A60144B134A1268802109020A431A607B68002B12D01023FB600CE0012000F019F900F019F8031EED
:401E400002D00023FB6005E07B68013B7B607B68002BEFD1FB681800BD4604B080BDC04660F02E4078002E400220000010002E4080B582B000AF054B1B68012213407B6072
:401E80007B681800BD4602B080BDC0460C002E4080B584B000AF02003960FB1D1A7080239B05FB60FB1D1B781F2B02D9002000F0ABF8FB1D1B7810339B00FA68D3181B68E6
:401EC000BB60FB1D1B7810339B00FA68D3183A681A60BB681800BD4604B080BD90B587B000AF0200FB1D1A70BB1D0A1C1A70BB1D1B78032B02D9002000F086F8FB1D1B78A2
:401F00001F2B02D9002000F07FF8FB1D1B7803221340DB0006337B611323FC1801F005FB03002370FB1D1B789B08DBB29B00144A944663441B68FB6003227B699A401300E8
:401F4000DA43FB681340FB60BB1D1A787B699A401300FA681343FB60FB1D1B789B08DBB29B00074A94466344FA681A601323FB181B78180001F0DDFAC046BD4607B090BDF8
:401F800000E400E080B582B000AF0200FB1D1A70064BFA1D12781F210A40012191400A001A60C046BD4602B080BDC04600E100E080B582B000AF0200FB1D1A70064BFA1DCF
:401FC00012781F210A40012191400A001A60C046BD4602B080BDC04680E100E080B582B000AF0200FB1D1A70064BFA1D12781F210A40012191400A001A60C046BD4602B0AF
:4020000080BDC04680E200E080B582B000AF0200FB1D1A7001BEC046BD4602B080BDC04680B582B000AF786009E00D4B1B68180001F072FA7B680B4A944663447B607A6807
:4020400080231B029A42F0D8074B1B687A685343180001F061FAC046BD4602B080BDC046D80C00200080FFFFD00C002080B582B000AF0200BB1D1A80BB1D1B88044A1278F2
:402080005343180001F048FAC046BD4602B080BDD40C002080B500AF0F4B0F4A126801218A431A600C4B0C4A126802218A431A600A4B0A4A126830218A4310210A431A6003
:4020C000064B064A126807218A4301210A431A60C046BD4680BDC04600F02E4000FF2E4080B500AF0F4B0F4A126802218A431A600D4B0D4A126807218A4302210A431A604D
:40210000094B094A126830218A4320210A431A60044B044A126801210A431A60C046BD4680BDC04600F02E4000FF2E4080B500AFFFF7B0FF044B044A1268802109060A43A4
:402140001A60C046BD4680BD00F02E4080B584B000AF78600C4B1B6801221340FB607B68002B02D0012B03D005E0FFF793FF06E0FFF7B6FF03E00020FFF746FFC046FB6822
:402180001800BD4604B080BD00F02E4090B583B000AFFC1D01F0C9F903002370074B074A1268C02109020A431A60FB1D1B78180001F0BFF9C046BD4603B090BD00010B409B
:4021C00080B500AF054B1A68C0231B02134001D0012300E000231800BD4680BD00010B4090B583B000AFFC1D01F09FF9030023700D4B0D4A12680D490A408021C9010A435A
:402200001A60094B084A126808490A40802109020A431A60FB1D1B78180001F08AF9C046BD4603B090BDC04600010B40FF3FFFFF90B585B000AF78600B23FC1801F075F986
:4022400003002370FFF7BCFF031E04D00123FB60FFF7C6FF01E00023FB607B680D4A13407B600D4B0C4A12680C4911407A680A431A60094B1B68FB68012B01D1FFF786FFF7
:402280000B23FB181B78180001F053F9C046BD4605B090BD0404040010020B40FBFBFBFF80B584B000AF786039600023FB607B68022B0AD8094B7A689200D358FB60074BF8
:4022C0007A6892003968D15002E00020FFF79CFEFB681800BD4604B080BDC0461C11002080B500AF344B1B68042213401FD0334B1B680422134017D0314B1B68042213402D
:40230000DA432E4B1B681A402C4B1A602C4B1B68042293431A002A4B1A602A4B1B68002B02D0284B1B6898470420FFF781FF224B1A688023DB00134022D0204B1A68802394
:40234000DB00134017D01E4B1A688023DB001340DA431A4B1B681A40184B1A60184B1B68194A1A40164B1A60164B5B68002B02D0144B5B6898478023DB001800FFF758FFCD
:402380000D4B1A688023DB02134011D00B4B1A688023DB02134006D00A4B9B68002B02D0084B9B6898478023DB021800FFF740FFC046BD4680BDC04610020B40E40C0020FE
:4023C000181100201C110020FFFBFFFF80B582B000AF0321042000F003FB00237B6007E07B680221180000F075FB7B6801337B607B68002BF4D000F009F8002000F02EFBB2
:4024000000F030F9C046BD4602B080BD80B582B000AF244B1B68DAB2234B1A70224B1B787B607B680F2293437B60204B1B78DBB21A000F2313407A6813437B607B68F0222D
:4024400093437B60194B1B78DBB21A00F02313407A6813437B60134B7A681A60144B154A1A60154B154A1A60154B1B687B607B680F2293437B607B68062213437B60104B4F
:402480007A681A601020FFF793FD0E4B19001020FFF7FEFC03211020FFF720FDC046BD4602B080BD00FF28409D22002062F1FF0F0800284000020001040028400008A001EA
:4024C000000402403D2E000080B582B000AF00F087FD00F037FD0021002000F045FD0021002000F08FFDFF2000F014FD402000F05FFD084B1B687B607B68074A13437B606B
:40250000044B7A681A601020FFF73CFDC046BD4602B080BD040028400010088080B500AF0A4B1B78002B04D1FFF750FF074B01221A70FFF7C9FF064B054A12688021C90340
:402540000A431A60C046BD4680BDC0463E1100200400284080B584B000AF0200FB1D1A70FB1D1A78FB1D01321A70FB1D1B78012B0CD0FB1D1A78094B1100180000F088FAE6
:402580000300FB60FB68002BEAD000E0C046FB1D1B781800BD4604B080BDC046E80C002080B582B000AF7860084B00221A707B68DAB2074B1A70054B81221A707B6818000E
:4025C00000F04AF9C046BD4602B080BD381100203911002080B500AF124B00221A70124BFF221A70104B1B78DBB21800FFF7B2FF03001A000C4B1A700B4B1B78DBB2002B0F
:402600000DD1084B1B78DBB201221343DAB2054B1A70054B1B78DBB2180000F01DF9C046BD4680BD381100203911002080B500AF044B1B78DBB21A00012313401800BD46C4
:4026400080BDC0463811002080B582B000AF7860034B7A685200D35A1800BD4602B080BD3C11002080B582B000AF00237B6006E07B68180000F062F87B6801337B607B6886
:40268000002BF5D0C046BD4602B080BD90B587B000AF786003237B6107231322BA18191C0B1CDB185B18137007221223FB1892001A701123FC1800F038FF030023701D4BBD
:4026C0007A699200D3581B68FB601223FB181B780F229A401300DA43FB681340FB601223FB181B7804229A401300FA681343FB60114B7A699200D3580F4A796989008A5892
:402700001268132179180978072088400100C9430A401A60074B7A699200D358FA681A601123FB181B78180000F003FFC046BD4607B090BD207101003C71010090B589B09C
:4027400000AF78600323BB6107221723FB1892001A7007231622BA18191C0B1CDB185B1813700023FB61384A7B68D3181B783B61364BBA699200D358344AB96989008A581B
:4027800012681721791809780F2088400100C9430A401A603B69022B40D03B69012B01D00623FB610F23FC1800F0BFFE03002370274BBA699200D3581B68BB601623FB18C1
:4027C0001B7807229A401300DA43BB681340BB601623FB181B78FA699A401300BA681343BB601B4BBA699200D358BA681A600F23FB181B78180000F09CFE164BBA6992004E
:40280000D358144AB96989008A5812680721080001218140C9430A401A6010E00B4BBA699200D358094AB96989008A5811681722BA1812780520904002000A431A60C0464D
:40284000BD4609B090BDC046A0220020207101003C7101005871010090B587B000AF78601723FB1800221A70384B3B6100F0B8FB00F068FB02239BB2013B9BB20021180018
:4028800000F072FB02239BB2013B9BB20021180000F0B8FBFF2000F03DFB402000F088FB1020FFF785FB2A4B802252021A60C046274B1B681B0C1B04FAD1264B01221A6025
:4028C0001020FFF78BFB1020FFF75CFB1020FFF76FFB214B1B68FB60FB68204A1340FB600A231A0050231B041343FA681343FB60194BFA681A601A4B1B68FB60FB68194ACF
:402900001340FB60FB68184A1343FB601020FFF739FB7B681800FFF7B9FE0B23FC1800F004FE030023700E4BFA681A60002000F0F3FD074B3A691A600B23FB181B78180017
:4029400000F0F7FDC046BD4607B090BD0000FF030C002840140028400800284000FF80FF04002840FF1FDFFF2020200080B584B000AF7860144B1B6899B2144B7A6852000E
:40298000D1527B681800FFF7D9FE1020FFF710FB0F4B1B68FB60FB680E4A1340FB60FB68A02212021343FB60094BFA681A600A4B094A126809490A401A601020FFF7E2FA06
:4029C000C046BD4604B080BD0C0028403C11002004002840FF1FDFFF0800284000FF80FF80B584B000AF786039601A4B3A689200D258184B39688900CB58186879680B003E
:402A00005B005B18072199400B00DB4303401360114B3A689200D3581B68FB607B689B000F229A401300DA43FB681340FB607B689B0005229A401300FA681343FB60064B8F
:402A40003A689200D358FA681A60C046BD4604B080BDC0463C7101002071010080B584B000AF78607B68032213407B60074B1B68FB607B685B02FA681343FB60034BFA6882
:402A80001A60C046BD4604B080BDC0460400284080B584B000AF786039603B68DB08FB603B680722134001229A400B23FB181A707A68FB68D3181B780B22BA181278134040
:402AC000DBB2002B01D0012300E000231800BD4604B080BD80B582B000AF786039603B68D9B2044A7B68D3180A1C1A70C046BD4602B080BDA022002080B584B000AF7860CF
:402B00000F23FB1814497A688A1812781A70134B7A685200D15A124B7A685200D152114A7B68D31800221A700F4B7A6852000021D1520F23FB181B7805210C4AD154074B78
:402B40007A685200D15A0A4B7A685200D152C046BD4604B080BDC0461C7101003C11002040110020441100204811002050110020A422002080B582B000AF78607B681800A0
:402B8000FFF70EFDC046FFF751FD031EFBD17B681800FFF7B1FFC046BD4602B080BDC04680B582B000AF00237B6006E07B681800FFF7E0FF7B6801337B607B68002BF5D0AF
:402BC000C046BD4602B080BD90B587B000AF78600F23FB186A497A688A1812781A700C23FB1814221A801023FB18664A796849008A5A1A80644B1B78002B15D0634B7A68B8
:402C00005200D25A1023FC181023FB181B881100180000F0F5F8030023805C4B7A685200102179180988D152594B7A685200D35A1022BA1812889A4212D3564A7B68D31817
:402C400000221A70524B7A685200D25A1223FB181021791809888A1A1A8001237B610CE04B4B7A685200D15A1223FB181022BA1812888A1A1A8000237B617B69002B24D1CA
:402C80001223FB181B88142B1FD9424A7B68D3181A7841497B68CB181B789A4209D37B681800FFF729FF3B4A7B68D31800221A704AE0384A7B68D3181B780133D9B2354A08
:402CC0007B68D3180A1C1A703EE01223FA180C23FB1812881B889A4207D91223FB181B88132B31D87B69002B2ED1294B7A685200D35A1B02BB60294A7B68D3181B781A007B
:402D0000BB681343BB601023FB181B88BA68D318BB601F4B7A685200D35A1A00BB689B1ABB60BB681B0A99B2194B7A685200D152BB68D9B2194A7B68D3180A1C1A70154ADA
:402D40007B68D31800221A701223FA180C23FB1812881B889A420AD97B69002B07D0104B7A685200122179180988D15204E00C4B7A6852000021D152C046BD4607B090BDA7
:402D80001C7101003C110020F10C0020A422002040110020A8220020F00C0020441100204811002080B582B000AF78607B681800FFF70AFFC046BD4602B080BD80B582B069
:402DC00000AF00237B6011E07A680C4B11001800FFF75EFE03003B603B68002B03D07B681800FFF7DFFF7B6801337B607B68002BEAD0C046BD4602B080BDC046E80C0020A7
:402E000080B584B000AF0200BB1D1A803B1D0A1C1A80BB1D1A883B1D1B88D318FB603B1D1B885B00FA68D318FB60FB689B08FB60FB689BB21800BD4604B080BD80B500AF34
:402E40001020FFF7B5F82D4B01221A602C4B1B78DBB21800FFF78AFD2A4B1B78DBB25BB2002B08DA274B1B78DBB201229343DAB2244B1A703CE0224B1B78DBB21800FFF7C8
:402E800069FB03001A001E4B1A701D4B1B78DBB2002B06D11A4B1B78DBB21800FFF7DCFC26E0184B1B78DBB201229343DAB2154B1A70144B1B78DBB21A004023134017D07B
:402EC000114B00221A700FE00F4B1B781A000E4B1B7819000D4B595C0D4B99540A4B1B780133DAB2084B1A70074B1B78002BEBD01020FFF747F8C046BD4680BD1400284006
:402F00003911002038110020521100209C220020E80C002080B582B000AF7860C046074B1B68002BFBDB054B7A68120204490A431A60C046BD4602B080BDC04600000140E6
:402F40004000008080B500AFC046054B1B68002BFBDB034B034A1A60C046BD4680BDC046000001404000004080B584B000AF0200BB1D1A807B1D0A1C1A700C4B1B680722DA
:402F80001340FB60BB1D1B881A02FB681A437B1D1B78DB00FF210B401343BB60034BBA681A60C046BD4604B080BDC0460003014080B582B000AF7860C046074B1B68002B08
:402FC000FBDB054B7A68120204490A431A60C046BD4602B080BDC046000001404100008080B500AFC046054B1B68002BFBDB034B034A1A60C046BD4680BDC0460000014041
:403000004100004080B584B000AF0200BB1D1A807B1D0A1C1A700C4B1B6807221340FB60BB1D1B881A02FB681A437B1D1B78DB00FF210B401343BB60034BBA681A60C04661
:40304000BD4604B080BDC0460403014080B500AF00F036F8C046BD4680BDC04680B500AF064B064A1268802109060A431A6000F019F800F01FF8C046BD4680BD0000244098
:4030800080B500AF064B1B78002B04D1FFF7DEFF034B01221A70FFF7E1FFC046BD4680BD5411002080B500AF0920FEF76BFFC046BD4680BD80B500AFC046BD4680BDC046F7
:4030C00080B500AF204B00221A60204B204A1A60204B214A1A60214B00221A60204B00221A60204B1C4A1A601F4B00221A600920FEF75EFF03210920FEF7F0FE1B4B1900BC
:403100000920FEF7C5FE1A4B00221A60194B00221A60194B00221A60184B00221A60184B00221A60174B00221A60174B10221A70164B00221A80164B00221A60154B0022F7
:403140001A60C046BD4680BD00002440600024407708008000032440070100800403244010032440000224400402244039350000C80E2440880E2440480F2440080F2440EF
:40318000C80F2440880F2440A9220020B4220020C4220020B022002080B500AF124B124A1268520052081A60104B00221A60104B00221A600F4B0F4A12680F490A401A608C
:4031C0000E4B00221A600E4B00221A600D4B10221A70054B044A1268802109060A431A60C046BD4680BDC04600002440680024406C00244060002440FF5CFFFF880F2440DE
:40320000C80F2440A922002080B586B000AFF860B9607A603B6004237B61BB68002B20D0344B1B78DBB2102B0CD10920FEF7C0FE314B1B680122134001D0082300E0002320
:403240007B610EE02B4B1B78DBB2602B09D12B4B1B889BB2082293439AB2284B1A8000237B617B69002B3CD1224B28221A70244B00221A60234B00221A60234B7A681A608F
:40328000224BBA681A603B68DAB2214B1A70FB685B00FF221340FB60184B1B889BB2022293439AB2154B1A801A4B40221A601A4B1A4A1A601A4B1422FF321A60194B402230
:4032C0001A603B680122134005D000F007F9164BFA681A6005E0144BFA681A60134B02221A600920FEF74EFE7B691800BD4606B080BDC046A922002064002440B422002012
:40330000BC220020B0220020C8220020C0220020AC220020800F2440000F244017030000080F2440880F2440400224406800244080B586B000AFF860B9607A603B60042314
:403340007B61BB68002B20D0394B1B78DBB2102B0CD10920FEF72CFE364B1B680122134001D0082300E000237B610EE0304B1B78DBB2602B09D1304B1B889BB20822934381
:403380009AB22D4B1A8000237B617B69002B47D1274B29221A70294B00221A60284B7A681A60284BBA681A603B68DAB2264B1A70FB685B00FF22134001221343FB601E4BBB
:4033C0001B889BB2012293439AB21B4B1A801F4B1F4A1A601F4B1422FF321A60184B1B68072B03D81C4B04221A6009E01B4B1B4A1268802149000A431A60174B08221A6021
:403400003B680122134005D000F068F8144BFA681A6005E0124BFA681A60124B02221A600920FEF7AFFD7B691800BD4606B080BDA922002064002440B4220020C42200208F
:40344000B8220020CC220020AC220020000F244017030000080F2440C80F244060002440400224406800244080B582B000AF0920FEF79EFD0B4B1B889BB27B600A4B1B7805
:40348000DBB220221340DBB2002B03D07B68042213437B600920FEF775FD7B681800BD4602B080BDB4220020A922002080B582B000AF0920FEF77CFD074B1B889BB27B60FD
:4034C000054B00221A800920FEF75CFD7B681800BD4602B080BDC046B422002080B582B000AF01237B60094B1B682022134001D0082300E000237A6813437B60044B7A689C
:403500001A60C046BD4602B080BDC0466400244068002440000000000230800803D00138FDD1C046C046C0467047EFF3108072B6704780F31088704780B582B000AF0023D6
:403540003B60C04B1B68002B02D0BE4B1B689847BD4B1B680122134002D0BC4B00221A60BB4B1B78DBB220221340DBB2002B38D0B84B1A6880235B0013400AD0B64B1B8875
:403580009BB2C022920013439AB2B34B1A8001233B60B04B1B68012213400AD0AE4B1B889BB29022920013439AB2AB4B1A8001233B603B68002B14D0A54B1B78DBB2012280
:4035C0001340DBB2002B01D0012300E00223A24A128892B213439AB29F4B1A809C4B00221A709B4B1B78DBB220221340DBB2002B00D1A4E1974B1B681022134018D0974BE6
:4036000010221A60924B1B78DBB201221340DBB2002B01D0012300E002238F4A128892B213439AB28C4B1A80894B10221A7090E1874B1B78DBB208221340DBB2002B29D0CE
:40364000844B1B68022213400ED0844B02221A60814B1B889BB28822920013439AB27E4B1A8001233B6015E0794B1B78DBB201221340DBB2002B03D0754B25221A7009E026
:40368000734B24221A70764B1B68002B02D0754B10221A606E4B1B78DBB204221340DBB2002B00D113E16A4B1B78DBB201221340DBB2002B5BD06C4B1B680822134033D018
:4036C0006A4B1A686A4B1B681F211940694B1B68CB18D31A7B607B68082B02D908237B601EE07B68002B1BD1634B634A126863490A401A6008237B6001233B6010E0604B4C
:403700001A685C4B1B68D2185E4B1B68DBB21370584B1B685A1C574B1A607B68013B7B607B68002BEBD11EE04F4B1B680422134019D0534B1A684F4B1B68D218514B1B6878
:40374000DBB213704B4B1B685A1C4A4B1A60494B1A68464B1B689A4203D24B4B04221A6001E001233B60494B494A1A60AFE0394B1B680222134032D0384B02221A60454B89
:403780001B681F221A40434B196880231B020B4001D0012300E00023D2183F4B1B689A1A3D4B1A603C4B1A683C4B1A602A4B1B889BB28422920013439AB2274B1A80384B54
:4037C000374A1268802149020A431A60344B344A126834490A401A6001233B6077E0324B1B681022134067D020E02B4B1A681C4B1B689A4221D21A4B1B685A1E264B1B688C
:403800009A4205D1294B40221A60164B40221A60274A284B1968204B1B68CB181B78DBB213601D4B1B685A1C1B4B1A60194B1B681F221340082BD8D100E0C0461B4B10226A
:403840001A6044E0581100208C0E2440880E2440A92200200C0F2440B4220020000F2440C8220020880F2440CC0F2440B822002008032440C422002060002440FFFEFFFFE4
:40388000CC2200204003244068002440C00F2440ED0F000008022440BC220020B022002004022440FFFFFEFF8C0F2440800F244040022440C0220020284B1B684022134050
:4038C00005D0274B1A68274B1A6001233B603B68002B3ED0244B244A126824490A401A60234B00221A60234B00221A60224B1B78DBB202221340DBB2002B15D01F4B1B783E
:40390000DBB201221340DBB2002B01D0092300E00A231B4A128892B213439AB2184B1A80164B60221A7014E0164B174A126820210A4001D0182200E010221A6009E00F4BDE
:403940001B78DBB210221340DBB2002B01D1FFF723FCC046BD4602B080BDC0468C0F2440BC220020B022002060002440FFFEFFFFC80F2440880F2440AC220020A922002048
:40398000B4220020680024406400244080B582B000AF78600A00BB1C1A80BB1C1A887B681A60C046BD4602B080BDC04680B582B000AF78600A00BB1C1A80BB1C1A887B687B
:4039C0001A60C046BD4602B080BDC04680B584B000AF494B1B78DBB21B02484A1278D2B21343FB60464B1B78DBB21B02454A1278D2B21343BB60BB68434A934207D1FB6879
:403A0000072B04D1414BBB600423FB6009E0BA68D4231B019A4204D1FB68042B01D13B4BBB603B4BBA681A603A4BFA681A603A4B1B78DBB21B02394A1278D2B21343FB60FB
:403A4000FA6880239B019A4202D0FB68002B01D1334BFB60334BFA681A60334B1B78DBB21B02324A1278D2B21343FB60FB68304A934206D0FB682F4A934202D0FB68052BD0
:403A800001D12D4BFB602D4BFA681A602C4B1B681B097B602B4B1B68AA2B29D17B68012B26D9214B1B78DBB20E2B21D1264B1B78DBB29BB21B0299B2244B1B78DBB29AB266
:403AC000BB1C0A431A80224BBA1C12881A60214B1B78DBB29BB21B0299B21F4B1B78DBB29AB23B000A431A801C4B3A0012881A60C046BD4604B080BDD9F0FF0FD8F0FF0F1C
:403B0000DFF0FF0FDEF0FF0F580B0000580D00006C002E4074002E40DBF0FF0FDAF0FF0F0220000078002E40DDF0FF0FDCF0FF0F0F0F000005050000050F000080002E40B0
:403B4000EC0F00F0E00F00F06DF2FF0F6CF2FF0F84002E406FF2FF0F6EF2FF0F94002E4080B582B000AF0200BB1D1A80BB1D1B881800FEF77BFAC046BD4602B080BDC0464C
:403B800080B582B000AF78607B681800FEF748FAC046BD4602B080BD80B500AF00F0ECF8C046BD4680BDC04680B500AF00F0F0F8C046BD4680BDC04680B500AF00F0E8F82D
:403BC000044B180000F0A2F8032000F0ADF8C046BD4680BDDD3D000080B500AF034B180000F080F8C046BD4680BDC046DD3D000080B500AF0223FF331800BD4680BDC0460B
:403C000080B582B000AF78602B231800BD4602B080BDC04680B582B000AF78602B231800BD4602B080BDC04680B582B000AF78602B231800BD4602B080BDC04680B582B039
:403C400000AF78602B231800BD4602B080BDC04680B582B000AF78602B231800BD4602B080BDC04680B582B000AF78602B231800BD4602B080BDC04680B582B000AF7860D9
:403C80002B231800BD4602B080BDC04680B582B000AF78602B231800BD4602B080BDC04680B500AF2B231800BD4680BD80B582B000AF0200FB1D1A702B231800BD4602B0FB
:403CC00080BDC04680B582B000AF786039602B231800BD4602B080BD80B500AFC046BD4680BDC04680B582B000AF786000F050F87B68180000F00AF8032000F015F800F04F
:403D00003BF8C046BD4602B080BDC04680B582B000AF7860034B7A681A67C046BD4602B080BDC0460000002090B585B000AF0200FB1D1A700623FB600B23FC18FFF7F5FB1C
:403D4000030023700B4B0B4A1268C0218A431100FA1D1078FA68904002000A431A600B23FB181B781800FFF7E4FBC046BD4605B090BDC0460CE400E080B500AF034B8022B9
:403D800052011A60C046BD4680BDC04600E100E080B500AF034B802252011A60C046BD4680BDC04680E100E090B583B000AFFC1DFFF7BBFB03002370074B074A1268042137
:403DC0008A431A6030BFFB1D1B781800FFF7B1FBC046BD4603B090BD10ED00E080B500AF12F044FFC046BD4680BDC046002243088B4274D303098B425FD3030A8B4244D350
:403E0000030B8B4228D3030C8B420DD3FF22090212BA030C8B4202D31212090265D0030B8B4219D300E0090AC30B8B4201D3CB03C01A5241830B8B4201D38B03C01A524155
:403E4000430B8B4201D34B03C01A5241030B8B4201D30B03C01A5241C30A8B4201D3CB02C01A5241830A8B4201D38B02C01A5241430A8B4201D34B02C01A5241030A8B421C
:403E800001D30B02C01A5241CDD2C3098B4201D3CB01C01A524183098B4201D38B01C01A524143098B4201D34B01C01A524103098B4201D30B01C01A5241C3088B4201D311
:403EC000CB00C01A524183088B4201D38B00C01A524143088B4201D34B00C01A5241411A00D20146524110467047FFE701B5002000F0F0F802BDC0460029F7D076E7704751
:403F000003460B437FD4002243088B4274D303098B425FD3030A8B4244D3030B8B4228D3030C8B420DD3FF22090212BA030C8B4202D31212090265D0030B8B4219D300E0D4
:403F4000090AC30B8B4201D3CB03C01A5241830B8B4201D38B03C01A5241430B8B4201D34B03C01A5241030B8B4201D30B03C01A5241C30A8B4201D3CB02C01A5241830A51
:403F80008B4201D38B02C01A5241430A8B4201D34B02C01A5241030A8B4201D30B02C01A5241CDD2C3098B4201D3CB01C01A524183098B4201D38B01C01A524143098B4212
:403FC00001D34B01C01A524103098B4201D30B01C01A5241C3088B4201D3CB00C01A524183088B4201D38B00C01A524143088B4201D34B00C01A5241411A00D2014652419B
:40400000104670475DE0CA0F00D04942031000D34042534000229C4603098B422DD3030A8B4212D3FC22890112BA030A8B420CD3890192118B4208D3890192118B4204D398
:4040400089013AD0921100E08909C3098B4201D3CB01C01A524183098B4201D38B01C01A524143098B4201D34B01C01A524103098B4201D30B01C01A5241C3088B4201D393
:40408000CB00C01A524183088B4201D38B00C01A5241D9D243088B4201D34B00C01A5241411A00D20146634652415B10104601D34042002B00D54942704763465B1000D365
:4040C000404201B5002000F005F802BD0029F8D016E770477047C046002B15D1002A13D1002906DB01DC002806D00020C043410802E080210906002007B4024801A1401839
:40410000029003BDD1FFFFFF03B4684601B5029800F064F8019B9E4602B00CBC7047C046F0B54F464646C0B41604360C9946330005042C0C070C150C63437E436F436543C9
:404140001C0CAD1964199C46A64203D980235B02984647446346250CEF191D044B464A4343432D0C240464199918C91920000CBC90469946F0BDC046D0B5012602000B00A4
:40418000134F7642B6185F4104001248874219D9520504D08023E40AE4021B011C43080001F0E8F800220C4B00F06AFE06000F00200001F021F932003B0000F035FB01F0D9
:4041C00053F9D0BD8742EAD1B01CE1D8E7E7C046FFFF1F00FFFF3F000000F041F0B583B016001F000090019101F0E8F904000D0002000B0030003900FFF792FF009A019B39
:40420000121A8B41089920000A604B60290003B0F0BDC046F0B5564644465F464D46F0B444024600C70F83B08846650A360EBA463DD0FF2E22D00023EC00802599469B46C4
:40424000ED0425437F3E43465C025800DB0F640A000E984636D0FF2830D080230021E400DB041C437F38301A0190484642460843724E800030587A4013008746002D44D1FB
:4042800008239946063B9B46DDE70122FF2000241A406402C305640AD2071C431443200003B03CBC90469946A246AB46F0BD002D20D104239946033B9B46C4E7002C17D11B
:4042C000022102E0002C0AD10121321A01924A4643460A435A48920082587B409746200001F04EF9431F76309C4040420021BAE70321B8E7280001F043F9431F9D400023AB
:404300007630464299469B469DE70C239946093B9B4698E780240022E403FF20B9E70024C2468B465A465346022AAED0032A7DD0012A31D1012200201A400024A9E70122F2
:40434000101A1B2856DD1A4000200024A1E78023DB031D424BD18023DB032B435C02640A3A00FF2095E76D016001854230D2019A0024013A01921B220127290064006D0067
:40438000002901DBA84201D82D1A3C43013A002AF3D16A1E95412C4301987F300028CEDD620704D00F222240042A00D00434220103D5244A019814408030FE2800DD64E704
:4043C0000122A401640AC0B21A4062E72C00A9E72D1A1A220124CFE76B02BCD500248023DB031C436402640A4246FF2051E71C42B3D1F4E721002022C140101A8440621E14
:4044000094410C43620704D00F222240042A00D00434620104D5012201201A40002438E70122A401640A1A40002032E78023DB031C436402640A5246FF202AE7747101000A
:40444000B4710100FFFFFFF7F8B54A024E0043024400240EC50F9B09360EC90F9209FF2E00D183E001204140A01BA9425CD0002800DC95E0002E1CD1002A00D081E05A07CC
:4044800004D00F221A40042A00D004335A013BD50134FF2C00D191E001209B015B0AE4B205405B02E4055B0AED0723432B431800F8BDFF2CE3D08021C9040A431B2800DD65
:4044C00090E016002021C640081A8240511E8A4132439B1A5A0115D59B019E09300001F04FF80538864084426CDC041B330020200134E340041BA640721E964100243343B6
:40450000BDE70D005A07BCD1DF0801231D40FF2C33D1002F00D190E08022D20313003B435B025B0AFF24BCE700284FDD002E2ED0FF2CA4D08025ED042A431B2800DD97E08C
:4045400016002025C640281A8240501E824132439B185A01D5D50134FF2C6DD001227B481A405B08034013430D0088E7002A00D07AE777E7031EC5D100257B025B0AE4B216
:404580008FE701380028A4D0FF2C97D177E7002A00D174E701380028DAD0FF2CCDD16EE7002821D1601CC0B2012858DD80279E1AFF0437402FD0D61A0D008FE701231D400E
:4045C00000236EE7624B241A334058E7002851D1601CC6B2012E33DDFF282DD09B185B0804004CE7012274E7002C1AD0FF2E1FD08024E404404223431B2800DD96E01D00E1
:404600002024C540201A8340581E83412B43D31A34000D005EE7002E00D05FE700250024ABE7002B44D0C0430028F0D0FF2EE3D11300FF240D0022E70D00FF24002330E739
:40464000002C5DD1002B7DD0002A00D117E79B185A0100D456E73E4A040013400FE7002C1ED1002B2FD1002A65D013000D0006E701226DE7002C1FD1002B59D0C0430028B7
:404680000BD0FF2E4FD01B285EDC1D002024C540201A8340581E83412B439B18340058E7002B1CD1002A49D013000D00FF24E6E6130034000D00E2E6FF2E34D08024E404E2
:4046C00040422343DFE7002A00D1D8E68027981AFF04074000D14DE7D31A0D00CFE6FF24002A00D1CBE68020DB08C003034204D0D208024201D113000D00DB00FF24BEE61C
:40470000002B10D0FF24002A00D1B8E68020DB08C003034203D0D208024200D11300DB000D00FF24ABE61300FF24A8E601236EE713003400A3E6002700251EE7802700258C
:40474000FF03E9E613009AE60123A6E7FFFFFF7DFFFFFFFB4302590A4300C20F1B0E00207E2B0EDD9D2B0DDC802000040143952B0BDC9620C31AD9400B005842002A00D18D
:4047800018007047034BD018FBE7963B99400B00F3E7C046FFFFFF7F70B5002830D0C317C5185D40C40F280000F0EAFE9E231B1A962B0DDC9622D21A95406A02520AD8B222
:4047C0005202C005520AE40702432243100070BD992B19DC9922D21A9540124A2A40690704D00F210D40042D00D00432510103D50C4B1A409F231B1A9201520AD8B2DFE76E
:40480000002400200022DBE705222E00121AB921D6402A00C91A8A40551EAA4135001543DBE7C046FFFFFFFBF8B556465F464D464446F0B40F00FD0FAA4609037C002E00ED
:404840005F00450F490A7F0D2943C5001803BC46400A570F640DDB0F3843D2009A4500D1AAE06646A61B002E00DCFFE06346002B39D10300134300D0D9E06B0709D00F2333
:404880002B40042B05D02B1DAB42AD416D4249191D000B0200D482E0CA4B01349C4200D1FEE00A005646C84BED081A405007640552020543120B640D002112030B0D1B05BE
:4048C0006405120B1A436308C04CF60714401C43640064083443280021003CBC90469946A246AB46F8BDB74B9C42C6D080231B041843382E00DDEBE01F2E00DD1EE12023D6
:404900009B1B9C4603006746BB40984613004746F3403B436746BA40571EBA4113430200F240EB1A9D42B6411D008A1A7642911B0B0231D54A02560A002E00D1B4E03000E2
:4049400000F01EFE0300083B1F2B00DDB5E020222900D21AD1409E400A009D4032439C4200DDB1E01C1B631C1F2B00DDD5E0202114002800C91A8C40D8408D400443DA4037
:40498000681E854111002543002476E74146314300D134E2310045466B0700D06FE756464807ED08C9080543864B9C4235D00A036405120B640D7FE76346E31A9B46002BB2
:4049C00000DC8BE06746002F3CD07E4FBC4200D153E780273F0438435B46382B00DCF7E00243501E82410020D2B253194218AB4289411D00494289180B02CDD5714B013416
:404A00009C4200D13DE101206F4A6B080A4028401843D507054351082FE72B000B4300D1CBE180231B030B431A03120B44E7013E002E6DD1AE1AB5429B41091A5B42C91A69
:404A4000350075E70700174300D116E701235B429C46E3445B46002B00D0E0E0AA18AA429B4109185B4259181500C5E7002E75D1661C7605760D012E00DCF3E0AE1AB04646
:404A80004545BF410E1A7F42F61B370200D48FE0551BAA42B641411A76428E1B9A464BE756460022002507E7280000F069FD20300300083B1F2B00DC49E72A00283882404E
:404AC00000259C4200DC4DE73F49E41A1140D4E60243501E8241D3B2002222E7002B00D0F3E0631C9C465B055B0D012B00DC9FE0344B9C4500D1C3E0AA180918AA4280410A
:404B000040424118CD075208154349086446B4E62C4B9C4200D0ECE6AFE611001F3CE1400C00202B00D17FE04021CB1A9A4015436A1E95410021254300242DE7330007000E
:404B4000203BDF403B00202E70D04027BE1BB0400243501E824113430022E2E6002C4FD0184CA44500D1ABE08024240476422143382E00DDDFE01F2E00DD43E12027BC1BC2
:404B8000A1460C004F46BC40A0462C004746F4403C434F46BD406F1EBD41F1402C43151BAA429241411A5242891A64469A46BFE641464546314300D0BEE600260024002549
:404BC000F2E6C046FF070000FFFF7FFFFFFF0F801F2B59DC2027FF1ABC46070063469F405B46B9461700DF40B8464F4643461F4363469A40531E9A415B463A43D840F4E625
:404C00000C002C435CD0F643002E55D1551BAA42A441411A6442091B9A46644688E6964FBC4200D0D8E628E6002280E700208FE70B002B43002C00D0C2E0002B00D101E14F
:404C40000300134300D118E6AB18AB42B6410918764271180A0200D409E1884A1D00114064460AE6002C5BD10E002E4300D08AE00100114300D1C2E0010015009A46FCE5AF
:404C80006446002100258FE620235B429C46DC4463460700DF405B46BC46202B00D1ACE040235F46DB1B98400243501E8241634613431A00002098E66F4CA44500D057E7DE
:404CC0000100150064469A46D7E5002C39D10C002C436ED0DB43002B1AD0674CA44568D0382B00DDA4E01F2B00DDAEE020240F00E41AA740B9462F00DF40B846A3464F46E8
:404D0000444627435C46A5406C1EA541D9403D43AD1895429B4109185B42591864466BE60C002C4315D1010011437BD0010015009A46514CA1E50D43691E8D410021ECB2CF
:404D40002DE74D4CA44534D0802424045B422143C6E7040014434ED0ED084C072C438025C9082D03294208D0C6082E4205D1D208410711430C009A463100620FC900E50040
:404D800011433D4C79E50600164300D175E5AE1AB0464545BF410E1A7F42F61B370200D4F4E5551BAA42B641411A7642891B9A4663E50100150064465FE5002200257BE529
:404DC000002B3BD00300134315D0ED084B072B438025C9082D03294207D0C4082C4204D141070B002100D2081343C9005A0F1143DD00214C41E5204C3FE5002054E70026E8
:404E00000025D1E534000F00203CE7403C00202E2BD04027BE1BB1400D43691E8D4100212C43BCE6802100260903134C0025BBE50D43691E8D410021EDB269E70100150082
:404E40000D4C1AE50100150017E51C000F00203CE7403C00202B0CD04027FB1A99400D43691E8D410021254352E70021D4E71D0092E50021F3E7C046FF070000FFFF7FFF08
:404E8000F0B55F4656464D464446F0B40D0399464E002B0B87B00700924680469B46760DCC0F002E69D06D4B9E4235D05B468022DD001204430F13432B439B46C3009846EB
:404EC000674B00279C460023664401934A4615035000D20F53462D0B400D914600D176E05E4A90426CD080225B0F120413435C4AED0094461D4353460022DB0060444946DD
:404F00003618701C6140029017430F2F00D9AFE05448BF00C759BF465B461F4300D088E000239B469846023308270193CEE74946022A6AD0032A00D109E2012A00D0BBE1A5
:404F400011400022002300259046CCB200212D030A0D12052D0B1543434A1B0515401D436D00E4076D0825434046290007B03CBC90469946A246AB46F0BD034352D05B46DA
:404F8000002B00D18AE1584600F0FAFA03000B3B1C2B00DD7BE11D22D31A3A0001005D46DA4008398D4013008F402B439B46B8462E4B00279C46002360444642019385E70D
:404FC00052462A432CD100250023022297E752462A4321D0002D00D154E1280000F0D0FA03000B3B1C2B00DD46E11D21CB1A51460200D9405346083A954093400D431B4A19
:40500000944660444042002279E7012400220C40124B0025904699E70025002301226EE703226CE700239B4698460133042701934CE703230C27019348E700238025984681
:4050400000242D03054B81E75D464346019A6FE75D4643462100019A6AE7C046FF07000001FCFFFFF4710100FFFF0F80F30300004246120C91461A0C9446424617044A462E
:405080001B041B0C5A43604690464A4642431000039262461C003F0C7A437C4342440192220C9246019A5244904506D98246802040028046C24450460390100C049048466B
:4050C0002404240C1204121905922A0C2D042D0C68432C00824648467C4350438146200C8046574357444744BA4503D9802040028046C144380C3F04B84648442404240CF7
:4051000001900498A044404404905846000C814658460404200C8246070048465F434C464343604660436446834650464443380C8446E4186444A34203D980235B029C46BE
:40514000E34448463F04230C3F0C2404E419574668436F4384464D46504655434243380C814662444A445B44944503D9802040028446654403983F04834604983F0C84464E
:40518000E344C345804140428246100484460198674484466744A344BC46A345A4419946D44464428742BF41D4458041E144A04699459B417F424042C8440743120CBA18DA
:4051C000A045A4415F423B0064422343D71843467D19DB0D6D021D435B465A02059B1A43531E9A415B46DB0D1A4343465B021343EA0107D501225C0813402343EA07029E38
:4052000013436D08574AB218002A4BDD580709D00F201840042805D0181D98429B415B42ED180300E80104D54F4A15408022D200B2184E48824200DDE7E60124DB0868072D
:4052400018436D02530580462D0B5B0D0C407DE6802259461203114208D0154206D115432D0398462D0B4C46414B6FE65D4615432D032D0B3E4B69E603005546283B9D401E
:405280000023BCE6504600F07BF92030A8E60300283B9F400023BB46984689E600F070F9203073E60124A61A382E07DD00220C4000230025904649E6029EA3E71F2E20DC3C
:4052C00020222C001800921BF040944093400443581E83411C43F540630709D00F232340042B05D023001C1D9C4292415242AD182B021FD5012400220C400123002590467A
:4053000024E61F202C004042821AD440202E1CD04022961BB5402B43581E83410720234318400025002809D00F2200251A401C00042AD8D1230068076D022D0B0124DB08ED
:40534000034398460C40002300E60025E3E780220124120315432D0398462D0B0C40044BF4E5C046FF030000FFFFFFFEFE070000FF07000070B5002830D0C317C4185C402A
:40538000C50F200000F0FCF8174B184A1B1AD21A1F2A18DD164AD21A9440002224035B05240B5B0D0021100024030A0D1205240B1443104A1B0514401C436400ED07640895
:4053C0002C43210070BD210091400A000B21081AC4405B052403240B5B0DE3E70025002300240022DEE7C0461E0400003304000013040000FFFF0F8070B5051E28D000F034
:40540000BFF8154B154A1B1AD21A1F2A16DD2C00134A0025D21A94405A052403240B520D002124030B0D240B1B0523430D4C1205234013435B002800590870BD0B212C0070
:40544000081AC440954024035A05240B520DE7E700220024E4E7C0461E0400003304000013040000FFFF0F804B0070B55E0D0C03751C640A420F6D052243C90FC4006D0D14
:40548000012D2ADD3B4BF318FE2B1ADC002B42DD8001451EA841D2001043620F0243500704D00F201040042800D004328020C004104021D00133FF2B03D09201520ADBB2E7
:4054C00001E0FF2300225202520ADB0513435B00C9075B080B43180070BD002E07D01443EFD08020D20080040243FF23D7E722430023002A03D00522D208FF2B03D0520273
:40550000520ADBB2DFE7002A32D08020C00302435202520AD7E71800173014DB8020000402431E20C01A1F280FDC2500124BF3189D406E1EB5419A402B0013432200C2408E
:405540001A430023ABE70023D5E702256D42EB1A1500DD40202809D0084BF3189A401443621E9441220000232A4398E70022F6E70022A8E780FCFFFF82FCFFFFA2FCFFFFB5
:405580001C2101231B04984201D3000C10391B0A984201D3000A08391B09984201D30009043902A2105C40187047C04604030202010101010000000000000000F0B54446CF
:4055C0005F4656464D46F0B41C0083B0002900DA92E00F00002106008A4610001900002C00DA80E034003D0081468846B94269D866D04146484600F0BFF883463900300074
:4056000000F0BAF85B461B1A9C46203B9B4600D586E04946584681400B004946604681400A00BB4200D971E06DD034003D005946A41A9D41002900DA89E0002100200126BC
:405640000090019159468E400196614601268E4061460096002960D0D90756080E435F086146012200230CE0AF4201D1A6420AD8A41BBD4124196D410139A4185D41002911
:4056800006D0AF42F0D9013924196D410029F8D15B460098019900196941002B4CDB2E00DE4063462C00DC405B46002B5ADB34009C4023006446A6403200801A994103E0D1
:4056C000B04296D9002000215346002B04D003000C0000215842A14103B03CBC90469946A246AB46F0BD5346DB430C009A46130000215842A14175E7002746428F4101218E
:4057000049428A4669E7B14200D88EE70021002000900191614600299ED100980199D3E7624640462023494690409B1AD9400300009100990B4370E7624620239B1A2A00B6
:405740009A40260013006246D6401E43A9E7614620260127761A00200021F74000900191019772E762462023350094409B1ADD4023002B439EE7C04610B5002903D1FFF79D
:40578000FFFE203002E0081CFFF7FAFE10BDC046014B18687047C046A81000200E4B70B500251E000D4CE41AA410A54204D0AB00F35898470135F8E711F03EFD084B00254F
:4057C0001E00084CE41AA410A54204D0AB00F35898470135F8E770BD4472010044720100447201004C72010030B50024A24208D0035D651C0C5DA34201D0181B02E02C00C9
:40580000F4E7002030BD002310B59A4203D0CC5CC4540133F9E710BD03008218934202D019700133FAE77047134A1088810703D08107890F401A001D11791030484381B2C0
:405840005088820703D08207920F801A001D800040180A494030098980B2CA0701D0503080B2890706D504495422091F09785143081880B270470000F80C0020681100202F
:4058800010B501F00BFF10BD10B501F00DFF10BD10B500F05BFA10BD10B50749044609780220002907D1204601F04EFF002802D120460AF0D7F910BD940E002070B5044625
:4058C0000120002C12D02368002B0FD0616800290CD0074D06222889208118462968FFF792FF6968606809780170002070BD000068110020FFB585B0002768460E9D07737E
:405900004F481C460078002802D0082009B0F0BD10990F9801900095029105A807C800F007F90028F2D16946264603AB84460873002C19D0002115E08A00B75A082F09D921
:4059400090198078002805D0083FB7521878401C187005E0002914D00027B75290198770491CC9B2A942E7D360460028CED10F98002809D0109901F041FA002804D0012077
:40598000C4E701208446EFE701F08EFE2D480021416081600599016021888180022D07D3A1798171A17AC171A1890181218A418100211EE0481C19E082008B00A75AE65AF8
:4059C000BE46BE4211D26F463E80B4461E190296B678BE7001967646E6521719029EBB78B3706646A652019EBE70401CA842E3D3491CA942DED3134822460C3000906846CC
:405A0000037B0799069800F01BF90028B8D168460B4C007B60700B480C3001F075FE0028AED1084907480C3107F07AF90028A7D107F094F90028A3D10121217066E7000004
:405A4000F20C00205C110020F8B5054636480F460078002802D002242046F8BD002F60D000243249002D16D02A89D0070DD02868002808D003881B3BE12B04D24088FB2847
:405A800001D81B2801D2012409E0900707D56868002804D1F7E70020088108604860002CDAD122482E8906811F481B21801D01804180042101711C490020891C0870F007E1
:405AC00005D019480622801D2968FFF79CFE1749B00703D56A68144812788270124D0E46AD1D281F0D60486001F054FE284601F043FE30890DF020FE30890DF011F82888F2
:405B00000DF014F830890DF081FF03461033FFF78BFE1F21C018890140183880A91F88809AE7012498E70000F20C002068110020FFB58446384F1C460020BB883F780546F1
:405B400002460646002F11D100290ED0029999420BD36146002908D0002C06D00A99002906D02E4B0B99994202D2012004B0F0BD002144E0AB001F19BF78002F3BD0E35AB5
:405B8000002B38D07B43591889B22B0000F04AF8050410161C253100A7782388BC46FF27233BEB37BB4222D26346032B1FD322E0A388002B1FD0302B19D31CE02389002BBD
:405BC00019D0282B13D316E0A289002A13D01346134F233BBB420AD20DE0268A002A0AD033460F4F233BBB4201D2964203D901200EE0002001E000280AD16D1CEDB2099B2A
:405C00009D42B7D31C2463435B1802998B42ACD89642AAD8AAE70000F20C002079020000BAFF000030B47446641E2578641CAB4200D21D46635D5B00E31830BC18470000B9
:405C4000FFB583B0002469460C801F4606468C80002806D00598002803D004983043800701D0012466E0002FFBD03449049809888842F6D3FDF7B0FFFDF796FF00F012FC58
:405C8000002855D100F07AFD002851D12C49084601F0E8F805042D0C4AD12A480499066081800021C18007810C98007AC00704D0684601F012FD040007D10C98007A8007AC
:405CC00003D501A801F012FD0446BF1DFEB2002C20D13146059800F05DF804001AD10DF0A3FE040016D16A461088928808368518144AF1B29088D288AEB29319984207D3EF
:405D0000401B801A80B201F09DFB050007D000E0FF25012400F05EFA002D04D008E0F8B200F01CF9F6E700F081FA07490120087000F0CAFB204607B0F0BD0000F60C0020FC
:405D4000815E000074110020FE0C002010B503480078012801D101F017FA10BDFE0C002070B5084B0446DA889E8800205518B54206D81D68AA182260DA885118D98070BD33
:405D8000032070BD74110020014800897047000074110020F0B587B007460D4600208900009006916846FFF7DBFF844600285DD1304800990160002117E02E4B88001A68C9
:405DC0000629115406D22C4C0419667882185670628805E0C419203CA67A8218567022891B68C018491C4280C9B2A942E5D300242DE0601CC2B2059025E01E4FA300396825
:405E00009600581840887118039604904E88B04217D938466F46FE80B6464F786E4677710297049F4F800168039F5E18767879184E700168764659184E800068029F1818B0
:405E40004770521CD2B2AA42D7D30598C4B2AC42CFD36046002809D168460699FFF780FF8446002802D1054900980860604607B0F0BD0000000D002070720100040D002078
:405E80007047000010B5002809D005494A68002A05D0011F08788000105801F081FA10BD000D002010B50446FFF76EFFC0B2801DA0420CD307484068002808D0A100405806
:405EC00001F0E0F9002801D00470001D10BD002010BD0000000D0020F8B516460D460446FFF752FFC0B2801DA04203D20020C0430090F8BDB2B2E9B2684601F0E9F9009933
:405F0000481C03D0024AA000526811500098F8BD000D0020F8B50746FFF736FF801DC6B20A49002005460C680DE06178002907D06188B94202D32078FFF7B4FF002804D180
:405F4000241D6D1CEDB2B542EFD3F8BD000D002010B5002801D0FFF795FF10BD70B506460948002504680BE06178002905D062882078121D0023FFF7AFFF241D6D1CEDB212
:405F8000B542F1D370BD0000000D0020FFB581B00A9F16000C4620D000F0F2F8054604281BD0002F0CD03846FFF7B4FF20492A0151184860002810D03A460499FFF723FC99
:405FC0001B4928010E504618778101980570200406D47D20C000444304E0FF2005B0F0BD6404640C00F0BAF80746042807D000F04FFAA0420BD800F04BFA201A03E020468B
:4060000000F0AAFA0020F06035720020E6E700F03FFA009000F0B6FA00980121001B009000F0ECF802493A0151180098C860E6E780110020F8B5060116483418217A0429E3
:4060400003D0E068002802D017E00020F8BD00F01FFA054600F096FA00F0A0F804280CD001010C480F18F8680021451900F0C6F80020F860284600F06FFA6068054D002850
:4060800001D0FFF765FF042020720020A8516081E060DAE780110020FEB500266A46304601232549050169180D7A042D02D0C96800291BD000211154401CC0B20428F0D329
:4060C00000246846005D002830D01B48210108184189476805680291002101604160042241810272C160002E02D015E01354E3E700F054F804280ED001010F480818019015
:40610000C6680021304600F079F801980021C160304600F021FA0126002D07D038460299A847002F02D03846FFF712FF641CE4B2042CC6D3FEBD0000801100200EB50020F6
:4061400005216A460090118150810348694600680EF0CFFA0EBD0000080D0020074A0020010189180B7A042B02D0C968002903D0401CC0B20428F3D370470000801100203E
:406180000549002002015218127A042A03D0401CC0B20428F6D370478011002030B50A4B04200A4C00210A011219157A042D06D0D268002A03D09A4201D808461346491CB3
:4061C000C9B20429EFD330BDFFFF0000801100207047000030B50020074C05460423020111190B72A5504D60401C4D81C0B2CD600428F4D330BD00008011002030B5094C38
:4062000000231A011219157A042D04D0D568002906D02D18D5605B1CDBB2042BF1D330BD2D1AF7E780110020002070471CB5002469460C70142001902346054A05480EF032
:406240005DFA04480068401C00D1FF2420461CBDA9620000080D00203EB5124A0146FF2000230124126800290DD0012914D0042908D104206946009308814B8110460EF0A4
:4062800038FA80B23EBD6846009304814381694610460EF029FAF4E768460093048143816946EBE7080D002070B545890468416800890300FFF7B6FC08280509091E2228C9
:4062C0002628002005F0E8FB1EE0022908D0C8B22A4621460CF070FB2046FFF739FE13E002202A4621460CF067FB2946204600F00DF809E000200DF0FBFE05E02046FFF7B8
:40630000CBFE01E0FDF7E8FC002070BD014B0022DB6818470C0D002070B5448905680089022803D0032809D0FF2070BD2246094C0023A46829460120A04708E0FFF7A4FA31
:40634000241DA2B200232946022006F09CFB002070BD00000C0D0020704700000248002141600180418070470C0D002070B50C46002186B016460391012802D0022859D1BF
:4063800016E003A9012006F0D3FB01281BD1039D324621462846FFF736FA0095287801900220694608814E816846FFF7B5FF41E0214D002B686809D0049004A9022006F02B
:4063C000B7FB01281DD0022006B070BD002812D0298840182146FFF716FA28880024801980B228806988091D884206D12C801348FFF792FF03E00320E6E788421AD96C6067
:4064000018E004986860E278A378110219430B4A698000231060E3565360032313815181A1788170E178C1706178417021780170042028800020C7E70C0D0020C0110020E7
:406440003EB515460C46022803D004280CD000203EBD0091019002206946088107484A8100680EF046F907E00CF0A6FA044B0022DB6829462046984701203EBD080D0020E5
:406480000C0D0020014AD160906070470C0D0020034801688068081A0A21484300097047CC11002010B5FDF787FB482204490548FFF7A9F903490120C870002010BD0000AD
:4064C0008C720100D015002010B5FDF765FB10BD70B5134C2368002B08D0207B1149C20705D04008400020738868A08070BD88680B4AA18880B29268814203D90A4D691AA2
:40650000091802E0814202D2411A5118A160A080A0689842EAD30EF009F900F013F870BDCC110020C0102E40FFFF000010B508461946FFF7A7FF10BD704710B5FFF780FF10
:4065400010BD000003480021016041608160C16070470000CC110020024610B5FF20002A0CD0FFF7EFFF064C0321207B0843207310010A21FDF7C0FC2060002010BD0000CC
:40658000CC11002000B504480A21806848430209FFF7D8FF104600BDCC1100200248007B8007C00F70470000CC11002010B54B490868002802DA4A4B01221A700222904382
:4065C0000860484800694549C00B4031096A0246C907C90F0A4259D0012000F097FA3F480E216C30FDF7E2F93E4820218430FDF7DDF93C4814219C30FDF7D8F93948FF21A5
:40660000C131A430FDF7D2F93648FF212F31B030FDF7CCF933483449BC30FDF7C7F931483249AC30FDF7C2F930492E48491CB430FDF7BCF92B482E49B830FDF7B7F929485F
:406640002C49CC30FDF7B2F926482B490830FDF7ADF924482949A830FDF7A8F9214828498830FDF7A3F91F4826498C30FDF79EF91C481921C9029030FDF798F9FDF7A6F98B
:40668000FDF7B6FAC0B2022812D01FE000290BD0002101420AD0114801216030FDF786F90120FDF76DFA97E70121F2E7FF2010BD15491648FDF77AF914481549001DFDF72A
:4066C00075F9124800210830FDF770F954200449C043891C0870002010BD000000F02E401C0D002000002E40320300002F3F00003102000010520000EC160000FA120000F3
:4067000031D000003AE300009956000080012E40F80F000070B50646581C80B245086D00002408E0304600F0C1F81055000A1119A41C4870A4B2AC42F4D3D80705D0D018A2
:406740002038D15CC47FD454C17770BD30B50A4C002100195B1E07E0541864782502545C2C430480891C89B29942F5DB994201D1515C018030BD000000102E4010B5FF2028
:4067800000F0C4F90F49FF2048700E481021801D41800121417001700A490020C91C4870FFF704FF04000AD100F010F907210648FDF7ECF8044807211830FDF7E7F82046B0
:4067C00010BD00001C0D0020CC112E4070B5002405465B1E0AE0284600F068F8010A161971702D1D1055A41CADB2A4B29C42F2DB9C4203D1284600F059F8105570BD0000A6
:4068000070B500210A4D5B1E0AE0541864782602545C344346193480001D891C80B289B29942F2DB994202D1515C4019018070BD00102E40F0B50599091FCFB200217E1E4E
:406840000BE0541864782502545C2C43164D45192C80001D891C80B289B2B142F1DBFC0712D01C78515C24020F4A0C4381180C809C785D78001D210280B229438418218027
:40688000001D80B2D9780CE059781A7809021143054A84182180001DD9789B78090280B2194380180180F0BD00102E40014940180088704700102E4010B50B490020487050
:4068C00000F084F8002000F047F9002000F034F907210648FDF75AF8044807211830FDF755F8002010BD00001F0D0020CC112E4010B50B46062812D006DC01280CD003282A
:4069000001D1FFF7D9FF10BD0A28FCD00B28FAD105480078107010BDFFF730FF10BD1146184600F035F910BD220D0020F8B5244DAC6A0127A007234E002816DA3078062899
:406940000ED1286A384328621F480069F903084381B21D481030FDF729F8042000F0D6F8174802212830FDF711F8E00718D000F01DFF01280FD1002000F06AFF062000F071
:40698000C5F81049FF20C91E48707078002802D1686B384368630A4801212830FCF7F6FFE0050BD53078042802D1052000F0AEF80348FF2101312830FCF7E8FFF8BD0000A8
:4069C00040F02E401F0D002000002E4010B503212348FCF7EBFF0120FDF7C2F820483038406A204C80076178800F890001431C480C38FCF7DBFF6078002808D0401E0221CF
:406A000081401820FDF762FBC000083800E0B82081B21548FCF7CAFF1348032109021438FCF7C4FF10481149B830FCF7BFFF612189010F48FCF7BAFF0D480321001FFCF797
:406A4000B5FF0C490C48FCF7B1FF0B480B496038FCF7ACFF084801218838FCF7A7FF10BD70F02E40220D0020D8102E4090890000041E2E40FF0F000058122E4020900000EF
:406A80000849087806280BD148780749002803D1486B400840004863C86A01221043C862704700001F0D002040F02E4001480078704700001F0D002000B50300FFF7B2F87A
:406AC000080D050D0B070507090D012000BD032000BD042000BD022000BDFF2000BD0000074A9168D26889B2064B92B2994204D105498A4201D1012100E0002101707047A6
:406B000080002E4033D000003FE3000010B50446FDF74AF8072C01D9FF2C01D102480470FDF73AF810BD00001F0D002001494870704700001C0D002010B5064A012805D0E1
:406B40001921C9021046FCF731FF10BD1D21C902F8E7000090002E4010B50A4A141D012808D009491046FCF721FF08492046FCF71DFF10BD04491046891CFCF717FF0349AE
:406B8000491DF3E788002E4031D000003AE3000070B50C460546FDF72BF8C0B202280E49287804D0FF2810D04C280CD810E0FF2809D10A4AD0680004800F032801D0087856
:406BC00007E09069000A553803E00878207070BD4F382070087070BD1E0D002000002E40F0B50122002834D0002932D00424420600D00524792342065B06D21800D0641C82
:406C0000034600221EE00C2516466E43124D00277519AF72104F002ABB51696007D0661EB24209D10D4E86197606760E05E05E06760E8027BE1B00E080269B198919521C60
:406C40002E81D2B2A242DED303480549006B002288611046F0BD00005814002079020000280D002018B50020694608700A48006900280ED0132149014018047E684604708F
:406C80004F21C900054800F059F8A04201D0012018BD002018BD0000280D0020DC110020074900200C2242435218927A012A05D0401CC0B20628F5D3002070470120704701
:406CC00058140020F8B50E000446154609D0194F19497868A04202D94018A04201D38D4201D90120F8BD31462046FEF77DFD00281ED02A4631462046FEF785FDE8B20021FA
:406D00000C224A43D21913895568EE18A6420BD90126641B1B1B9672834209DA1469C01A044AC0B220329676491CC9B20629E7D30020F8BD5814002079020000034610B5CE
:406D40000020024604E09C5C2018521CC0B292B28A42F8D310BD000070B500F05FF8084C064A216907480D46FEF74DFD05492846FFF736FFFFF776FF207070BD790200000A
:406D8000280D0020DC110020002070470020054A002902D0012902D002E0906000E0D06000207047280D002070B5084C154608460549E26889182A46FEF725FDE0684019A3
:406DC000E06028B270BD0000DC110020280D00203EB50A226946FFF7E7FF044606480A2200686946FEF700FD002802D00020C0433EBD20463EBD00002C0D0020002802D0A7
:406E0000044A914201D2FF20704703494A6108610020704779020000280D0020024800218160C16070470000280D002070B5074C15460548A26880182A46FFF743FFA06896
:406E40004019A06028B270BDDC110020280D002010B503490A220968FFF7E8FF10BD00002C0D002010B50F4A002313600E4A13600E4B18600E4801600E49012008600E4961
:406E80000860000290600E490C4808600D4914300860FF381538506000F0BCF800F0CAF9002010BD5C0D0020440D0020700D0020740D0020600D0020500D0020A0150020D4
:406EC000540D0020680D0020014610B50020002910D0094B1A689C685118A14209D25868196080188A0704D08A07920F891A091D196010BD002010BD440D0020F8B50024A0
:406F0000164E671E321F3D463168136806E01422624310328A58521C1BD0641C9C42F6D36A1C14D02C461422544322460C3288500C214843FFF7C8FF3168002808510AD08B
:406F400031680020103408517068401C70602846F8BD2546E4E73846F8BD0000540D0020F3B50026F64381B000281BDB1E490968884217D80299002914D01B4F1422044631
:406F80003F1D54432546396810354859401C09D0FCF70AFE38682F1F4159C359994203DBFCF7FAFD3046FEBD214608310091465801590C20704308180C220299FEF723FC3F
:406FC0000948761C001D0068C159B14200D100260549009A091D865008684159491C4151FCF7DAFD0020FEBD500D0020002803DB07490968884202D90020C043704704498B
:407000001422091D096850431030085870470000500D0020F0B500200D4A451E0346171F50600FE014260146714314680E1DA3510C46166808343351166808343551146863
:40704000401C635039688842ECD30020F0BD0000540D0020F3B50026F64381B0002841DB2349096888423DD8029900293AD0204F142204463F1D54432546396810354859AF
:40708000401C2FD0FCF790FD3868415900292BD0211D009146580C21005971430F46C1190C220298FEF7AFFB11480021001D0068761C00590C34C0190160416081600C4820
:4070C000001D00680159B14200D100260849009A091D865008684159491E4151FCF75CFD0020FEBD3046FEBDFCF756FDFAE70000500D0020FEB504460D4600201E49089E64
:407100000860471E009001900290002C11D0486885420ED2002A0CD0002E0AD0642E08D808460C3001681C2068430C18207A002801D03846FEBD0120226020721846FFF798
:40714000DDFE6060401C13D06681A6810A4827610C3067610179A94200D205710021684601810A462846029B00F040F82846FEBD00202072DDE700005C0D002038B501248E
:40718000009400F039F838BDFEB50027164EFF433D4600240EE01C20316860430818017A002906D04068FFF721FF002801D0254603E0641C3079A042EDDA681C12D01C2184
:4071C00030684D434419FCF7EFFC69466068FFF741FF0546FCF7E0FC002DD9D1216868468847D5E7FEBD0000680D002038B50024009400F001F838BD1FB500220C49541E3C
:407200000A60002811DB496888420ED808491C220C31096850430818406801A9FFF7A0FE401C02D0002004B010BD2046FBE700005C0D0020F0B50021114A4D1E174611718E
